:1000000047C061C060C05FC05EC05DC05CC05BC017
:100010005AC02CC158C057C056C055C08DC153C01E
:1000200052C051C050C04FC000000000000000008E
:1000300000030400000000000000000000000000B9
:100040000000000000002E00250028002B0000000A
:100050002D00240027002A000404040404040404DE
:10006000020202020202020203030303030303016A
:10007000010101030102040810204080010204086C
:100080001020408080010204081020010204084072
:1000900011241FBECFEFD1E0DEBFCDBF11E0A0E045
:1000A000B1E0E0E7FBE002C005900D92A432B10799
:1000B000D9F721E0A4E2B1E001C01D92A633B20756
:1000C000E1F784D153C59CCF90E0FC01EC58FF4F81
:1000D0002491FC01E85AFF4F8491882399F090E025
:1000E000880F991FFC01E25BFF4FA591B491FC01C1
:1000F000EC5BFF4F859194918FB7F894EC91E22BD4
:10010000EC938FBF089590E0FC01E85DFF4F3491C0
:10011000FC01EC58FF4F2491FC01E85AFF4FE49199
:10012000EE2369F13323B9F0333049F48091800034
:100130008F7780938000809180008F7B0AC034305D
:1001400051F4809180008F7D8093800080918000A9
:100150008F7E80938000F0E0EE0FFF1FEC5BFF4F7F
:10016000A591B4918FB7611105C0F894EC912095D9
:100170002E2303C0F894EC912E2B2C938FBF08955F
:10018000909100019F3F41F1981711F08F3F21F5A9
:1001900080916F00887D80936F0080918100887FBF
:1001A00080938100E0913201F0913301309769F042
:1001B000909131018081282F30E0892F90E0809547
:1001C000909582239323808304C060E08091000196
:1001D0009ADF8FEF8093000108953FB7F8948091E4
:1001E000290190912A01A0912B01B0912C0126B5F3
:1001F000A89B05C02F3F19F00196A11DB11D3FBF5F
:10020000BA2FA92F982F8827820F911DA11DB11DEC
:10021000BC01CD0143E0660F771F881F991F4A95E7
:10022000D1F70895CF92DF92EF92FF92CF93DF93B1
:100230006B017C01D2DFEB01C114D104E104F104B4
:1002400071F0CBDF6C1B7D0B683E7340A8F381E03F
:10025000C81AD108E108F108C851DC4FEDCFDF9191
:10026000CF91FF90EF90DF90CF9008951F920F9263
:100270000FB60F9211242F933F934F935F936F9379
:100280007F938F939F93AF93BF93EF93FF9380914F
:100290002D0190912E01A0912F01B0913001892B59
:1002A0008A2B8B2B61F180912D0190912E01A091D1
:1002B0002F01B0913001181619061A061B0614F505
:1002C00080912D0190912E01A0912F01B0913001CC
:1002D0000197A109B10980932D0190932E01A0935C
:1002E0002F01B093300180912D0190912E01A091AA
:1002F0002F01B0913001892B8A2B8B2B19F48FEFB2
:100300003FDF09C080913101E0913201F09133016A
:10031000908189278083FF91EF91BF91AF919F9149
:100320008F917F916F915F914F913F912F910F909E
:100330000FBE0F901F9018951F920F920FB60F923D
:1003400011242F933F938F939F93AF93BF938091EB
:10035000250190912601A0912701B09128013091AB
:10036000240126E0230F2D3730F029E8230F0396D0
:10037000A11DB11D03C00296A11DB11D2093240132
:100380008093250190932601A0932701B093280123
:100390008091290190912A01A0912B01B0912C010B
:1003A0000196A11DB11D8093290190932A01A0936C
:1003B0002B01B0932C01BF91AF919F918F913F91F1
:1003C0002F910F900FBE0F901F901895CF93DF9332
:1003D00000D000D0CDB7DEB7809166008093660074
:1003E00085B5887F826085BD789480916E0081603C
:1003F00080936E0080918100887F8093810080913E
:100400008000816080938000809180008D7F809348
:10041000800080918100877F80938100809181009E
:100420008F7E809381008091810082608093810023
:1004300080917A008877836880937A0080917A002F
:10044000806880937A0088E03FDE89E03DDE60E0EE
:1004500089E059DE83E038DE84E036DE60E084E067
:1004600052DE03E111E083E091E09A8389832CE27C
:10047000222E20E0322E88248A94982C540148EEB3
:10048000442E43E0542E612C712CF801619171913E
:100490008F0188EE93E059D16B01E981FA81819156
:1004A0009191FA83E9839C838B83809100018F3F34
:1004B00009F04EC0109281001092800010928500C9
:1004C00010928400109289001092880010928B0084
:1004D00010928A0080916F00887D80936F0086B3B0
:1004E000876286BB809180008E7F809380008091A0
:1004F00080008D7F80938000809181008860809350
:100500008100809181008F7E80938100F101849130
:10051000833021F08491843009F0F9C010923301C6
:100520001092320110923101F1018491833009F06F
:10053000E5C0809180008F7780938000809180005B
:1005400080648093800084E0BFDD84E080930001BC
:10055000809100010D2C000CEE08FF08843009F09A
:100560005BC080918100887F80938100109285001C
:10057000109284008B819C81009709F440C09C01FB
:1005800040E050E060E271EA87E090E013D1215052
:1005900031093093890020938800C114D104E1040B
:1005A000F104B9F06B817C81660F771F80E090E0E9
:1005B000A70196011DD1B901CA01A3019201D8D0AA
:1005C00020932D0130932E0140932F015093300141
:1005D000B6C080922D0190922E01A0922F01B09270
:1005E0003001F1018491833021F08491843009F04D
:1005F000A6C0809181008160809381000DC08091B0
:100600006F00826080936F0080916F00887D80937F
:100610006F0060E084E077DDC701B601B0D126E667
:1006200036E646EA5FE30FD277D1072E000C880B3F
:10063000990BF8DD84E0A4DDF1E003321F0709F037
:1006400024CF00E310E0E0903401F090350188E021
:100650003BDD1E141F0414F060E005C08FEFE816A8
:10066000F10424F061E088E04EDD29C0F8018491B6
:10067000833079F48091800080688093800080913D
:1006800080008F7B80938000F0928900E092880048
:1006900016C0843079F4809180008062809380005D
:1006A000809180008F7E80938000F0928B00E0929A
:1006B0008A0005C0F0E8EF16F104A4F6CDCF209132
:1006C0000101309102018091340190913501820F36
:1006D000931F909335018093340101978E3F9105CC
:1006E00038F03195219531093093020120930101B1
:1006F0006EE170E080E090E095DDA5CF8091800014
:100700008F7D809380008091800080611ACFECE51E
:10071000F0E08491E82FF0E0EE0FFF1FEC5BFF4F5D
:10072000859194919093330180933201E8E7F0E052
:10073000849180933101809180008F7002CF8091ED
:100740006F00826080936F0054CF97FB072E16F4E2
:10075000009406D077FD08D09DD007FC05D03EF46C
:10076000909581959F4F0895709561957F4F08955D
:10077000A1E21A2EAA1BBB1BFD010DC0AA1FBB1FA5
:10078000EE1FFF1FA217B307E407F50720F0A21B17
:10079000B30BE40BF50B661F771F881F991F1A9484
:1007A00069F760957095809590959B01AC01BD01AE
:1007B000CF010895052E97FB16F400940FD057FD36
:1007C00005D0D6DF07FC02D046F408C0509540950E
:1007D000309521953F4F4F4F5F4F089590958095ED
:1007E000709561957F4F8F4F9F4F089568940013C8
:1007F000E894A0E0B0E0EEEFF3E01DC0EFEFE7F922
:1008000059016A015E23550FEE08FE2C87019B01FA
:10081000AC019E23990F660B762FCB014FD0CDB73D
:10082000DEB7EAE024C02F923F924F925F926F9220
:100830007F928F929F92AF92BF92CF92DF92EF9270
:10084000FF920F931F93CF93DF93CDB7DEB7CA1BF1
:10085000DB0B0FB6F894DEBF0FBECDBF09942A881C
:10086000398848885F846E847D848C849B84AA84C4
:10087000B984C884DF80EE80FD800C811B81AA8151
:10088000B981CE0FD11D0FB6F894DEBF0FBECDBF1C
:10089000ED010895AA1BBB1B51E107C0AA1FBB1F96
:1008A000A617B70710F0A61BB70B881F991F5A95FC
:1008B000A9F780959095BC01CD010895DF93CF9362
:1008C0009F92A0E49A2E0024D001E001F001169539
:1008D0000795F794E794D794C794B794A79448F4EE
:1008E0001068A20FB31FC41FD51FE61FF71F081EF5
:1008F000191E220F331F441F551F661F771F881FA5
:10090000991F9A9421F79D01AE01BF01C0011124E6
:100910009F90CF91DF91089504D06894B1118DC05C
:10092000089570D088F09F5790F0B92F9927B7514C
:10093000A0F0D1F0660F771F881F991F1AF0BA95A3
:10094000C9F712C0B13081F077D0B1E0089574C01A
:10095000672F782F8827B85F39F0B93FCCF3869599
:1009600077956795B395D9F73EF4909580957095F6
:1009700061957F4F8F4F9F4F0895E89409C097FB73
:100980003EF490958095709561957F4F8F4F9F4F66
:100990009923A9F0F92F96E9BB279395F6958795AA
:1009A00077956795B795F111F8CFFAF4BB0F11F46D
:1009B00060FF1BC06F5F7F4F8F4F9F4F16C0882314
:1009C00011F096E911C0772321F09EE8872F762F4A
:1009D00005C0662371F096E8862F70E060E02AF08B
:1009E0009A95660F771F881FDAF7880F9695879577
:1009F00097F9089557FD9058440F551F59F05F3FE0
:100A000071F04795880F97FB991F61F09F3F79F030
:100A100087950895121613061406551FF2CF4695B2
:100A2000F1DF08C0161617061806991FF1CF869534
:100A30007105610508940895E894BB276627772718
:100A4000CB0197F908950AD080C071D028F076D0F4
:100A500018F0952309F062C067C0EFCFCBDFA8F391
:100A60009923D9F35523C9F3950F50E0551FAA27B1
:100A7000EE27FF27BB2700240894679520F4E20F98
:100A8000F31FB41F0A1E220F331F441FAA1F6695AF
:100A9000A9F7779530F4F30FB41F0A1E121E08F45D
:100AA0006395330F441FAA1F221F769599F78795E8
:100AB00020F4B40F0A1E121E631F440FAA1F221F28
:100AC000331F8695A9F7862F712D602D11249F570E
:100AD00050408AF0E1F088234AF0EE0FFF1FBB1F61
:100AE000661F771F881F91505040A9F79E3F510500
:100AF00070F014C0A2CF5F3FECF3983EDCF3869514
:100B000077956795B795F795E7959F5FC1F7FE2BAA
:100B1000880F911D9695879597F9089597F99F6786
:100B200080E870E060E008959FEF80EC0895002475
:100B30000A941616170618060906089500240A9442
:100B400012161306140605060895092E0394000CC8
:100B500011F4882352F0BB0F40F4BF2B11F460FF57
:100B600004C06F5F7F4F8F4F9F4F0895F894FFCF62
:100B7000FF05000601C400C400DC00C4000000F74B
:100B8000000601040008000800040004000400043A
:040B9000000400005D
:00000001FF
