:1000000048C06CC06BC06AC069C068C067C066C0C9
:1000100065C064C063C062C061C060C088C25EC0A9
:100020005DC05CC05BC05AC0000000000000000062
:1000300000030400000000000000000000000000B9
:100040000000000000002E00250028002B0000000A
:100050002D00240027002A000404040404040404DE
:10006000020202020202020203030303030303016A
:10007000010101030102040810204080010204086C
:100080001020408080010204081020010204084072
:10009000690411241FBECFEFD1E0DEBFCDBF11E058
:1000A000A0E0B1E0EAEBFDE002C005900D92AC30BB
:1000B000B107D9F721E0ACE0B1E001C01D92AE3448
:1000C000B207E1F710E0C9E4D0E003C02197FE01D8
:1000D00049D4C834D107D1F774D26DC691CF90E01E
:1000E000FC01EC58FF4F2491FC01E85AFF4F84912A
:1000F000882399F090E0880F991FFC01E25BFF4F85
:10010000A591B491FC01EC5BFF4F859194918FB761
:10011000F894EC91E22BEC938FBF089590E0FC01F2
:10012000E85DFF4F3491FC01EC58FF4F2491FC0136
:10013000E85AFF4FE491EE2369F13323B9F03330ED
:1001400049F4809180008F778093800080918000B7
:100150008F7B0AC0343051F4809180008F7D809372
:100160008000809180008F7E80938000F0E0EE0F11
:10017000FF1FEC5BFF4FA591B4918FB7611105C0D4
:10018000F894EC9120952E2303C0F894EC912E2B3B
:100190002C938FBF0895DC01ED91FC910280F381D7
:1001A000E02D60E00994CF93DF93EC01E881F981C1
:1001B0000280F381E02D68AD611162E0CE01099506
:1001C000E881F9810280F381E02D88AD811102C0C0
:1001D00061E001C063E0CE0109958EA19FA18A3143
:1001E000910538F04697969587959695879501974E
:1001F000F1F7E881F9810280F381E02D68AD6111AA
:1002000062E0CE01DF91CF910994DF92EF92FF92ED
:100210000F931F93CF93DF93EC01249600E010E03F
:10022000E62EF12CDD24D394C701002E02C0959553
:1002300087950A94E2F7688180FD6D25FE0132976B
:1002400080816CDF21960130110519F001E010E08A
:10025000EBCFDF91CF911F910F91FF90EF90DF9047
:100260000895DC01ED91FC910680F781E02D099461
:100270002F923F924F925F926F927F928F929F92B6
:10028000AF92BF92CF92DF92EF92FF920F931F93A4
:10029000CF93DF9300D000D0CDB7DEB71C01FC01B7
:1002A000C284D384E484F58486819781A085B18556
:1002B000C81AD90AEA0AFB0A668577858089918976
:1002C0009B01AC010DD54B015C01F1016689778979
:1002D000808D918D9B01AC014CD39B01AC01C5017C
:1002E000B401AFD316D4C114D104E104F104A1F4D4
:1002F00062307105810591050CF07CC0F101168E0C
:10030000178E10A211A216861786108A118A10A6BF
:1003100011A612A613A6F4C0F10100A511A522A5ED
:1003200033A51C141D041E041F0404F51016110629
:10033000120613064CF46C157D058E059F055CF5C1
:1003400020AD211157C027C0011511052105310528
:1003500009F450C06C157D058E059F050CF04AC050
:10036000F10180AD813009F045C039C01016110689
:1003700012061306FCF40027112798010C191D0919
:100380002E093F09601771078207930724F4F101D2
:1003900020AD213079F59B01AC0188279927DC013C
:1003A000821B930BA40BB50BF10180A791A7A2A709
:1003B000B3A720C00115110521053105D9F0882406
:1003C000992454018C189D08AE08BF08681579055A
:1003D0008A059B057CF4F10180AD81110BC030953D
:1003E0002095109501951F4F2F4F3F4F00A711A744
:1003F00022A733A7F10180A491A4A2A4B3A48114DD
:100400009104A104B10491F484A595A5A6A5B7A56E
:1004100080AB91ABA2ABB3AB81E01C141D041E04F6
:100420001F040CF080E0F10180AF38C0F101C0A8DA
:10043000D1A8E2A8F3A8A7019601C701B60199D2F5
:100440002B013C01C501B40197D320E030E040E826
:1004500050E446D420E030E040E85FE38AD29B01DC
:10046000AC01C301B201EDD29B01AC01C701B601E1
:100470007FD27B018C01F10164A875A8C6A8D7A81A
:100480009301A60129D4181614F073018601A7015F
:10049000B801F10140AB51AB62AB73ABFFEF8F1A08
:1004A0009F0AAF0ABF0AF10180A691A6A2A6B3A631
:1004B00020A931A942A953A9CA01B90129833A83C4
:1004C0004B835C832BD3F101668F778F80A391A33D
:1004D00029813A814B815C8160E074E284E799E490
:1004E000B0D2F10166877787808B918B20AD211187
:1004F00007C0DC01CB01B05886879787A08BB18BF2
:100500000F900F900F900F90DF91CF911F910F914F
:10051000FF90EF90DF90CF90BF90AF909F908F9023
:100520007F906F905F904F903F902F9008951F9213
:100530000F920FB60F9211242F933F938F939F9397
:10054000AF93BF9380910D0190910E01A0910F0187
:10055000B091100130910C0126E0230F2D3730F0BF
:1005600029E8230F0396A11DB11D03C00296A11D0A
:10057000B11D20930C0180930D0190930E01A09367
:100580000F01B09310018091110190911201A0917F
:100590001301B09114010196A11DB11D80931101A9
:1005A00090931201A0931301B0931401BF91AF91E6
:1005B0009F918F913F912F910F900FBE0F901F90A1
:1005C0001895809166008093660085B5887F82606B
:1005D00085BD789480916E00816080936E008091DB
:1005E0008100887F8093810080918000816080936A
:1005F0008000809180008D7F8093800080918100B9
:10060000877F80938100809181008F7E809381001D
:100610008091810082608093810080917A00887748
:10062000836880937A0080917A00806880937A0052
:1006300082E055DD60E082E071DD88E050DD61E060
:1006400088E06CDD89E04BDD60E089E067DD20E07B
:1006500030E04AE754E460912701709128018091CD
:10066000290190912A01E9D1882309F44AC080E048
:1006700090E0AAE7B4E48093270190932801A09327
:100680002901B0932A018093490190934A01A093D4
:100690004B01B0934C0180913D0190913E01A0919E
:1006A0003F01B0914001181619061A061B064CF5B9
:1006B0006091230170912401809125019091260180
:1006C0009B01AC010DD36B017C0160912B017091FA
:1006D0002C0180912D0190912E019B01AC0149D1FB
:1006E0009B01AC01C701B601ACD113D260933D01AF
:1006F00070933E0180933F019093400185E191E02A
:10070000B7DD20E030E048E452E4609123017091CD
:10071000240180912501909126018FD1882309F42D
:100720005FC0C0902701D0902801E0902901F0908F
:100730002A0146015701B7FAB094B7F8B09420E007
:1007400030E048E452E4C501B401C6D2181654F0B2
:1007500020E030E048E452E4C701B6016ED187FDE5
:1007600003C013C07501640120E030E0A901C70196
:10077000B60163D181110FC0109233011092340180
:10078000109235011092360123C0C12CD12C58E4AF
:10079000E52E52E4F52EA701960160E074E284E7AD
:1007A00099E44FD19F77BAD16093330170933401AC
:1007B0008093350190933601C1E020E030E0A9013B
:1007C000C701B60189D218160CF0C0E0C0934D01E4
:1007D000C0922301D0922401E0922501F0922601DB
:1007E0008091330190913401A0913501B09136018F
:1007F0000097A105B105E1F33FB7F894809111018D
:1008000090911201A0911301B091140126B5A89BFB
:1008100005C02F3F19F00196A11DB11D3FBFCC248B
:10082000D82EE92EFA2EC20ED11CE11CF11C43E099
:10083000CC0CDD1CEE1CFF1C4A95D1F780913701D2
:1008400090913801A0913901B0913A01B701A60108
:10085000481B590B6A0B7B0B80913301909134013B
:10086000A0913501B0913601481759076A077B07F7
:1008700008F4B6CF20914D0180911B0190911C018D
:10088000A0911D01B0911E01213021F40196A11DFE
:10089000B11D03C00197A109B10980931B01909379
:1008A0001C01A0931D01B0931E0140911B015091AA
:1008B0001C0160911D0170911E0185E191E0D1DC68
:1008C000C0923701D0923801E0923901F0923A019A
:1008D00087CFE5E1F1E084E091E0918380831682A7
:1008E0001782108611861286138614861586168640
:1008F0001786108A118A80E090E0A0E8BFE3828B1F
:10090000938BA48BB58B828F938FA48FB58F168E0C
:10091000178E10A211A221E030E037A326A312A265
:1009200013A214A215A21282238310A611A612A646
:1009300013A610AA11AA12AA13AA84AB95ABA6AB50
:10094000B7AB10AE1482158246E856E669E679E444
:1009500044A755A766A777A7868B978BA08FB18FE3
:10096000CF0186CCEE0FFF1F0590F491E02D099486
:100970005058BB27AA270ED075C166D130F06BD175
:1009800020F031F49F3F11F41EF45BC10EF4E095AA
:10099000E7FB51C1E92F77D180F3BA1762077307DC
:1009A0008407950718F071F49EF58FC10EF4E09559
:1009B0000B2EBA2FA02D0B01B90190010C01CA0119
:1009C000A0011124FF27591B99F0593F50F4503EC4
:1009D00068F11A16F040A22F232F342F4427585FB6
:1009E000F3CF469537952795A795F0405395C9F7CE
:1009F0007EF41F16BA0B620B730B840BBAF0915086
:100A0000A1F0FF0FBB1F661F771F881FC2F70EC024
:100A1000BA0F621F731F841F48F4879577956795F7
:100A2000B795F7959E3F08F0B3CF9395880F08F0E0
:100A30009927EE0F979587950895D9D008F481E00E
:100A400008950CD00FC107D140F0FED030F021F452
:100A50005F3F19F0F0C0511139C1F3C014D198F3C0
:100A60009923C9F35523B1F3951B550BBB27AA272F
:100A700062177307840738F09F5F5F4F220F331FA1
:100A8000441FAA1FA9F333D00E2E3AF0E0E830D06D
:100A900091505040E695001CCAF729D0FE2F27D070
:100AA000660F771F881FBB1F261737074807AB073E
:100AB000B0E809F0BB0B802DBF01FF2793585F4FB3
:100AC0002AF09E3F510568F0B6C000C15F3FECF3CD
:100AD000983EDCF3869577956795B795F7959F5F78
:100AE000C9F7880F911D9695879597F90895E1E0CC
:100AF000660F771F881FBB1F621773078407BA072B
:100B000020F0621B730B840BBA0BEE1F88F7E09585
:100B1000089504D06894B111D9C00895BCD088F06C
:100B20009F5790F0B92F9927B751A0F0D1F0660FD9
:100B3000771F881F991F1AF0BA95C9F712C0B130F4
:100B400081F0C3D0B1E00895C0C0672F782F882707
:100B5000B85F39F0B93FCCF3869577956795B39533
:100B6000D9F73EF490958095709561957F4F8F4FA2
:100B70009F4F0895E89409C097FB3EF490958095A7
:100B8000709561957F4F8F4F9F4F9923A9F0F92F53
:100B900096E9BB279395F695879577956795B795D1
:100BA000F111F8CFFAF4BB0F11F460FF1BC06F5FB7
:100BB0007F4F8F4F9F4F16C0882311F096E911C0C9
:100BC000772321F09EE8872F762F05C0662371F0EA
:100BD00096E8862F70E060E02AF09A95660F771FFE
:100BE000881FDAF7880F9695879597F90895990FDA
:100BF0000008550FAA0BE0E8FEEF16161706E807E7
:100C0000F907C0F012161306E407F50798F0621B07
:100C1000730B840B950B39F40A2661F0232B242BDC
:100C2000252B21F408950A2609F4A140A6958FEFFB
:100C3000811D811D089597F99F6780E870E060E04D
:100C400008959FEF80EC089500240A941616170665
:100C500018060906089500240A94121613061406AD
:100C600005060895092E0394000C11F4882352F010
:100C7000BB0F40F4BF2B11F460FF04C06F5F7F4FC8
:100C80008F4F9F4F089557FD9058440F551F59F0AF
:100C90005F3F71F04795880F97FB991F61F09F3F69
:100CA00079F087950895121613061406551FF2CF92
:100CB0004695F1DF08C0161617061806991FF1CFE2
:100CC00086957105610508940895E894BB27662709
:100CD0007727CB0197F908958ADF08F48FEF0895FD
:100CE0000AD0C0CFB1DF28F0B6DF18F0952309F0A5
:100CF000A2CFA7CFEBCFC7DFA8F39923D9F3552312
:100D0000C9F3950F50E0551FAA27EE27FF27BB27F1
:100D100000240894679520F4E20FF31FB41F0A1E05
:100D2000220F331F441FAA1F6695A9F7779530F449
:100D3000F30FB41F0A1E121E08F46395330F441FED
:100D4000AA1F221F769599F7879520F4B40F0A1EE3
:100D5000121E631F440FAA1F221F331F8695A9F777
:100D6000862F712D602D11249F5750408AF0E1F09D
:100D700088234AF0EE0FFF1FBB1F661F771F881FD7
:100D800091505040A9F79E3F510570F054CF9ECF2F
:100D90005F3FECF3983EDCF3869577956795B795C2
:100DA000F795E7959F5FC1F7FE2B880F911D9695EC
:0A0DB000879597F90895F894FFCF96
:0C0DBA0000000000CB0005013101D30057
:00000001FF
